:020000040800F2
:10000000A8060020ED01000871040008690400083A
:100010006D040008A9020008810800080000000023
:10002000000000000000000000000000B104000813
:10003000AD02000800000000750400087D060008FD
:10004000070200080702000807020008070200086C
:10005000070200080702000807020008070200085C
:10006000070200080702000807020008070200084C
:10007000070200080702000807020008070200083C
:10008000070200080702000807020008070200082C
:10009000070200080702000807020008070200081C
:1000A000070200080702000807020008070200080C
:1000B00007020008070200080702000807020008FC
:1000C00007020008070200080702000807020008EC
:1000D00007020008070200080702000807020008DC
:1000E00007020008070200080702000800000000DD
:1000F0000000000000000000000000000000000000
:1001000000000000000000000702000807020008CD
:10011000070200080702000807020008070200089B
:10012000070200080702000807020008070200088B
:10013000070200080702000807020008070200087B
:10014000070200080702000807020008070200086B
:1001500000F002F800F03AF80AA090E8000C82449F
:100160008344AAF10107DA4501D100F02FF8AFF27C
:10017000090EBAE80F0013F0010F18BFFB1A43F085
:1001800001031847DC090000FC090000103A24BFF5
:1001900078C878C1FAD8520724BF30C830C144BFEC
:1001A00004680C607047000000230024002500262E
:1001B000103A28BF78C1FBD8520728BF30C148BFCA
:1001C0000B6070471FB51FBD10B510BD00F031F8B2
:1001D0001146FFF7F7FF00F027FC00F04FF803B4DB
:1001E000FFF7F2FF03BC00F057F800000948804712
:1001F00009480047FEE7FEE7FEE7FEE7FEE7FEE709
:10020000FEE7FEE7FEE7FEE704480549054A064B20
:10021000704700008506000851010008A800002072
:10022000A8060020A8020020A802002070477047FE
:100230007047754600F02CF8AE46050069465346F7
:1002400020F00700854618B020B5FFF7DDFFBDE8B8
:1002500020404FF000064FF000074FF000084FF02D
:10026000000BAC46ACE8C009ACE8C009ACE8C0097A
:10027000ACE8C00921F007018D46704710B504466F
:10028000AFF300802046BDE81040FFF7A8BF000094
:10029000004870470800002001491820ABBEFEE767
:1002A0002600020070470000FFE7FEE770470000ED
:1002B00088B007900691002005900490039002906A
:1002C000019000900698806800F00F000590069855
:1002D000007AC006002806D5FFE706984068059911
:1002E00008430590FFE70698007800284FD0FFE705
:1002F00007980068019000200390FFE70398072803
:1003000041D8FFE70398012101FA00F00290069816
:1003100000880299084004900498029988422DD1DF
:10032000FFE703988000029002980F2101FA00F085
:1003300000900098019921EA000001900598029927
:10034000884001990843019006988068282807D1C1
:10035000FFE70398012101FA00F0079948610CE0DA
:1003600006988068482807D1FFE70398012101FA21
:1003700000F007990861FFE7FFE7FFE7FFE7039851
:1003800001300390BAE7019807990860FFE70698E3
:100390000088B0F5807F51DBFFE707984068019047
:1003A00000200390FFE70398072843D8FFE703984E
:1003B0000830012101FA00F00290069800880299A5
:1003C000084004900498029988422ED1FFE70398D0
:1003D0008000029002980F2101FA00F0009000982E
:1003E000019921EA0000019005980299884001993D
:1003F0000843019006988068282808D1FFE70398F1
:100400000830012101FA00F007994861FFE70698DA
:100410008068482808D1FFE703980830012101FAD5
:1004200000F007990861FFE7FFE7FFE70398013055
:100430000390B8E7019807994860FFE708B0704754
:1004400082B00190ADF80210BDF802000199486138
:1004500002B0704782B00190ADF80210BDF8020002
:100460000199086102B07047FFE7FEE7FFE7FEE78A
:10047000704700007047000082B00190012000909A
:10048000009848B1FFE7019841F21801C4F2020157
:100490000A681043086009E0019841F21801C4F2AB
:1004A00002010A6822EA00000860FFE702B0704714
:1004B0007047000080B500F001F880BD82B00020D8
:1004C0000190009041F20000C4F20200016841F482
:1004D00080310160FFE741F20000C4F202000068D1
:1004E00000F400300090019801300190FFE700997E
:1004F000002031B9FFE70198B0F5A06018BF0120D6
:10050000FFE7C0070028E6D1FFE741F20000C4F290
:10051000020000688003002803D5FFE70120009057
:1005200002E000200090FFE70098012879D1FFE762
:1005300042F20000C4F20200016841F010010160C3
:10054000016821F003010160016841F002010160CE
:1005500041F20400C4F20200016801600168016018
:10056000016841F48061016041F22C00C4F2020094
:1005700001684FF20002CFF6FE721140016001687F
:1005800040F24462C0F201021143016041F20000F6
:10059000C4F20200016841F080610160FFE741F2AE
:1005A0000000C4F2020000680001002801D4FFE747
:1005B000F5E741F20400C4F20200016821F47C1165
:1005C0000160016841F4E811016041F20000C4F2E9
:1005D0000200016841F080710160FFE741F2000014
:1005E000C4F2020000688001002801D4FFE7F5E7AB
:1005F00041F20400C4F20200016821F0030101602D
:10060000016841F002010160FFE741F20400C4F219
:100610000200006800F00C00082801D0FFE7F4E7B2
:1006200000E0FFE702B0704780B582B043F280205F
:10063000C0F20200009000980138B0F1807F03D32F
:10064000FFE70120019016E0009801384EF21401F6
:10065000CEF20001086000F015F94EF21800CEF25B
:100660000000002101604EF21000CEF200000722CF
:1006700002600191FFE702B080BD000080B500F08C
:1006800067FA80BD80B541F20000C4F20200016843
:1006900041F00101016041F20401C4F202010A6863
:1006A0000023CFF2FF031A400A6002684FF6FF737F
:1006B000CFF6F6631A400260026822F480220260DC
:1006C0000A6822F4FE020A60016821F0A05101606C
:1006D00041F20800C4F202004FF47F01016041F2D0
:1006E0002C00C4F2020000210160FFF7E3FE4EF689
:1006F0000850CEF200004FF00061016080BD0000A4
:1007000080B582B0019000F0F7F800900098019950
:100710000861019841684908416001988168490869
:1007200081600198009940F27402C2F2000242F81E
:100730002100009800F0C6F8009802B080BD0000CB
:1007400080B5FFF771FF80BD82B00090009840F245
:100750009C01C2F20001085C012804D1FFE70120DE
:100760008DF8070003E000208DF80700FFE79DF8F3
:10077000070002B07047000080B582B00190019878
:1007800040F27401C2F20001002241F820200198D9
:1007900000F0A4F802B080BD10B582B000F010F9EE
:1007A0000190019840F26801C2F200010968884294
:1007B00001D1FFE761E0019840F26801C2F2000157
:1007C0000860FFE700200090FFE70098092853D851
:1007D000FFE7009840F29C01C2F20001085C08B9F2
:1007E000FFE745E0009840F27401C2F2000151F8C1
:1007F000200040680199884239D1FFE7009840F213
:100800007404C2F2000454F8200000688047009885
:1008100054F82000C068013060B9FFE701980099E2
:1008200040F27402C2F2000252F821108A681044A9
:1008300048601BE00198009940F27402C2F2000285
:1008400052F821108B6818444860009852F8200034
:10085000C1680139C160009852F82000C06820B911
:10086000FFE70098FFF788FFFFE7FFE7FFE7FFE7F5
:10087000009801300090A8E7FFE702B010BD00002B
:10088000FFE7FEE782B04FF0FF3001900F200090AD
:100890000198002809D4FFE70098000101994EF261
:1008A0000042CEF2000288540AE00098000101994B
:1008B00001F00F014EF61452CEF200028854FFE709
:1008C00002B0704781B00090009840F29C01C2F2E3
:1008D000000101220A5401B07047000081B000906D
:1008E000009840F29C01C2F2000100220A5401B0BB
:1008F00070470000FFE7FEE782B000200090FFE7AE
:100900000098092817D8FFE7009840F29C01C2F22E
:100910000001085C50B9FFE7009840F29C01C2F268
:10092000000101220A540098019006E0FFE70098B8
:1009300001300090E4E7FFF7DDFF019802B0704757
:1009400080B540F26C00C2F20000007870B9FFE799
:1009500040F60000C4F201000821FFF771FD40F2EB
:100960006C00C2F20000012101700DE040F60000B1
:10097000C4F201000821FFF76DFD40F26C00C2F2E5
:10098000000000210170FFE780BD000010B584B0B9
:100990000420FFF771FD0820ADF80400102003903B
:1009A0000320029040F60004C4F2010401A920468D
:1009B000FFF77EFC20460821FFF74CFD04B010BD78
:1009C00040F27000C2F200000068704780B5FFF787
:1009D000F7FF400080BD000010B540F20004C2F2F5
:1009E0000004206800F072F82068013000F0030075
:1009F000206010BD10B584B02020FFF73DFD9C2085
:100A0000ADF80400102003900320029041F200444E
:100A1000C4F2010401A92046FFF74AFC2046042144
:100A2000FFF70EFD04B010BD94B000241394FFF73F
:100A300087FEFFF7ABFFFFF7DDFF4FF4FA70129070
:100A400040F64110C0F600000D90FFF7BFFF0230E6
:100A50000E9012980F900420109011940DA8FFF79B
:100A60004FFE0C9040F6D910C0F600000790FFF73B
:100A7000ADFF023008901298099008200A900B945C
:100A800007A8FFF73DFE0690FFE7FFF785FE0698F3
:100A9000FFF75AFEC8B9FFE7129800F5FA701290F6
:100AA00040F6D910C0F600000190FFF78FFF1299B1
:100AB000084402300290129803900820049000200D
:100AC000059001A8FFF71CFEFFE7DEE710B582B036
:100AD00001900198032837D8DFE800F0020F1C29A5
:100AE00041F20044C4F2010420469821FFF7B2FC11
:100AF00020460421FFF7A4FC27E041F20044C4F2A1
:100B0000010420469421FFF7A5FC20460821FFF7A9
:100B100097FC1AE041F20044C4F2010420468C2103
:100B2000FFF798FC20461021FFF78AFC0DE041F208
:100B30000044C4F2010420461C21FFF78BFC204630
:100B40008021FFF77DFC00E0FFE702B010BD000050
:100B500040F27000C2F2000001680131016070478C
:100B6000800B000800000020080000008C01000835
:100B7000880B000808000020A0060000A80100085B
:080B800001000000000000006C
:04000005080001519D
:00000001FF
