:020000040800F2
:1000000018150020BD020008ED480008E54800086A
:10001000E948000825470008294B000800000000B7
:100020000000000000000000000000002D49000852
:100030002947000800000000F1480008A54A000810
:10004000D7020008D7020008D7020008D70200082C
:10005000D7020008D7020008D7020008D70200081C
:10006000D7020008D7020008D7020008D70200080C
:10007000D7020008D7020008D7020008D7020008FC
:10008000D7020008D7020008D7020008D7020008EC
:10009000D7020008D7020008D7020008D7020008DC
:1000A000D7020008D7020008D7020008D7020008CC
:1000B000D7020008D7020008D7020008D7020008BC
:1000C000D7020008D7020008D7020008D7020008AC
:1000D000D7020008D7020008D7020008D70200089C
:1000E000D7020008D7020008D7020008000000006D
:1000F0000000000000000000000000000000000000
:100100000000000000000000D7020008D70200082D
:10011000D7020008D7020008D7020008D70200085B
:10012000D7020008D7020008D7020008D70200084B
:10013000D7020008D7020008D7020008D70200083B
:10014000D7020008D7020008D7020008D70200082B
:1001500000F002F800F0A2F80AA090E8000C824437
:100160008344AAF10107DA4501D100F097F8AFF214
:10017000090EBAE80F0013F0010F18BFFB1A43F085
:100180000103184774CA010094CA0100103A24BF41
:1001900078C878C1FAD8520724BF30C830C144BFEC
:1001A00004680C607047000000230024002500262E
:1001B000103A28BF78C1FBD8520728BF30C148BFCA
:1001C0000B6070476E2901F0C180702901F00B822D
:1001D000662919F0E980652919F0E680672919F088
:1001E000E380612919F0E28003681B0A28BF41F00F
:1001F0008001692901F06E80642901F06B80752906
:1002000001F068806F2901F09981782901F0D78188
:10021000E92901F03381E42901F03081F52901F069
:100220002D81EF2901F09681F82901F0D68103682C
:10023000DB0928BF41F08001632903F01F81732986
:1002400003F02481E32903F02F81F32903F03481A3
:10025000002070471FB59DE8030000F041FF00F04B
:100260001FFF04000020002118F012FF401C6060F6
:100270000020002118F038FFE0600020002118F075
:100280001DFF206102F02AFA00F0EAFE1FBD10B542
:10029000002002F05CFB02F08AFA10BD02F05FFC65
:1002A0001146FFF7D7FF18F0F1F803F09DFE03B4F5
:1002B000FFF7EDFF03BC00F0E5FE000009488047B2
:1002C00009480047FEE7FEE7FEE7FEE7FEE7FEE738
:1002D000FEE7FEE7FEE7FEE704480549054A064B50
:1002E00070470000AD4A000851010008180F0020B7
:1002F0001815002018110020181100200B46014687
:10030000184600F034BB70477047704710B500F0D6
:10031000C7FE001D10BD00BF798D01000048704769
:100320001401002070B5064600F0B6FE056806F11F
:100330000B0020F00704B4429CBF002070BD2B4688
:100340006A68BAB11068A04210D304F1080188426B
:100350003CBF5068586007D351681019416011685C
:10036000091B016058601460101D70BD134652686F
:10037000002AE7D12146284600F09EFE0028DED163
:1003800070BD70B50446051F00F086FE0068002CA5
:1003900014BF446870BD002C18BFAC423CBF20465F
:1003A0006468F8D301680A18AA4218BF456003D1EF
:1003B0002A6805461144016028684119A1421CBF02
:1003C0006C6070BD6168696021680844286070BD18
:1003D00070B50D460646041F00F05EFE0268BDB112
:1003E000DEB105F10B0020F00701A9423CBF00205F
:1003F00070BD23688B4238BF506813D35A1A082A3D
:1004000036D3601840F8042B2160FFF7BAFF2FE0C5
:100410003046FFF7B6FF002070BD2846BDE87040AB
:10042000FFF780BF002818BFA0423CBF02464068CB
:10043000F8D303EB040C84451CD1D0F800C063440E
:10044000994217D8A3EB010CBCF1080F0DD3D0F8DB
:1004500004C06318C3F804C0D4F800C00068604446
:10046000401A18602160536002E0236040685060C9
:10047000201D70BD2846FFF755FF050008D0314606
:100480002068021F284600F03BFB201DFFF779FF84
:10049000284670BD2DE9F04791460C46804600F095
:1004A000FBFD0768604234EA000001D1042C02D24F
:1004B0000520BDE8F087601E40F0070609F10B003B
:1004C00020F007054D4539D93B467A6882B3146858
:1004D000101D404206EA000C644525D9A4EB0C002F
:1004E000854221D8BCF1000F0BD010460168624450
:1004F000A1EB0C01116041685160C0F800C0586068
:100500000346116805F10800814205D35019491BC3
:10051000016015605860034652F8040F58600020CF
:10052000C8F80020BDE8F08713465268002ACED1F3
:100530002946384600F0C0FD0028C5D10620BDE898
:10054000F08710B500F002FE00F0080010BD2DE9A4
:10055000F0410F46134615460A4606460021084656
:1005600000F03CFE0446401CFFF7DCFE306030B17A
:10057000611C2B463A46BDE8F04100F02FBE4FF01B
:10058000FF30BDE8F08100000FB47CB50C0009AA73
:10059000009001D02044401E084B7B4469460190E6
:1005A000089800F0ECFE05461CB10020694600F0FA
:1005B000F9FE28467CBC5DF814FB0000110E00001B
:1005C0007CB51D4616460C00009001D02044401E0C
:1005D000074B7B442A4669460190304600F0CFFE27
:1005E00005461CB10020694600F0DCFE28467CBDB3
:1005F000D90D000000B58DB0099000920B904FF01E
:10060000FF300A9000200C90054878440690054879
:1006100078446A46079009A801F0F8FC0DB000BDC7
:100620001F1A0000371A00000FB400B58DB010A9D2
:10063000099000910B904FF0FF300A9000200C9031
:10064000064878440690064878446A4607900F9911
:1006500009A801F0DBFC0DB05DF814FBE719000000
:10066000FF19000001F05EBD01F0A4BD70B50446A5
:10067000C068810713D0800601D5A56A04E0A1698E
:10068000606808442169451A204601F0E3FF002212
:1006900006462946204601F02DFF304670BD002059
:1006A00070BD70B510B1BDE87040DFE70025074CA4
:1006B0006E1E07E02046FFF7D9FF00B13546206DDA
:1006C00020F00104002CF5D1284670BD1800002050
:1006D00018F044BCCA68431C0FD00D4B1A420CD111
:1006E000D3070AD081F825004B680B6300238B6089
:1006F00012F0C06F0B6003D004E04FF0FF30704782
:1007000042F00072034B1A40034B1A43CA60704711
:1007100080200800BFFFDFFF001048002DE9FE43E6
:100720000E461746804600210846AFF30080054676
:100730000020009001905EB130784FF0FF3900B199
:10074000AFB11DB1D5E90001CDE9000100240CE0F5
:100750000020BDE8FE83315D6A46641C02A802F0F9
:10076000B0F8411C03D0012803D0BC42F3D3484663
:10077000EFE71DB1DDE90001C5E90001B8F1000FA7
:1007800002D00299C8F8001002980028E1D0204653
:10079000DFE770B50C4605460AB1104603E00421B8
:1007A0000020AFF3008022462946BDE87040034692
:1007B000002000F037B82DE9F84F914688460746EB
:1007C0004FF000045FEA030A0D6819D107210020E9
:1007D000AFF30080824613E015F8011B52466846CD
:1007E00002F06FF80646401C11D0B61C08D017B1B5
:1007F000009847F824000098641C70B1C8F80050B5
:10080000002FE9D04C45E7D32046BDE8F88FFFF72D
:1008100085FD042101603046F7E70021601EC8F81D
:100820000010F2E701F0F6BF02F02EB82DE9F84F04
:100830009B461746894680460024DDF828A00D68AF
:100840005FEA0A001CD10921AFF30080824617E05D
:10085000F7B115F8011B524668467F1E02F031F8C9
:100860000646401C17D0B61C0AD0B8F1000F02D0C3
:10087000009948F824100098641C90B1C9F8005001
:10088000B8F1000FE4D05C45E2D32046BDE8F88F14
:10089000C9F80050F9E7FFF741FD04210160304637
:1008A000F4E70021601EC9F80010EFE72DE9FF4FC3
:1008B00091468846824683B00024109F0E688FBB05
:1008C0000A210020AFF3008007462BE017B1D7E9DB
:1008D00000B102913A466846316802F014F80546C4
:1008E000401C0BD0BAF1000F16D00698291981428E
:1008F0000CD9EFB10299C7E900B119E0FFF70EFD7D
:1009000004210160284607B0BDE8F08F0AEB04001F
:100910002A46694600F06DF830682C4450B1361D07
:10092000C8F80060D8F8000010B1B9F10109CDD2C3
:100930002046E8E70021641EC8F80010F8E710B56B
:10094000FFF7E4FC006890F80111012901D00120B3
:1009500010BDD0F80B0110BD10B5002002F018F842
:10096000FFF795FCBDE81040012000F08BBB2DE99E
:10097000F041074615460E461020FFF7D3FC040051
:100980000AD06760C4E9026500F08EFB016821604F
:1009900004600020BDE8F0810120FBE710B5431C96
:1009A00002E010F8011B71B18107FAD14FF001325A
:1009B00002C88C1A8C4314EAC211F9D0C01A0A0674
:1009C00003D0C01E10BDC01A10BD0A0401D0801E85
:1009D00010BD0902FCD0401E10BD920002F070B89C
:1009E00010B50B46044691001A4600F024F9204643
:1009F00010BD032A40F2308010F0030C00F0158087
:100A000011F8013BBCF1020F624498BF11F801CB11
:100A100000F8013B38BF11F8013BA2F1040298BF76
:100A200000F801CB38BF00F8013B11F0030300F0E0
:100A30006780083AC0F0088051F8043B083A51F842
:100A400004CBA0E80810F5E7121D5CBF51F8043B89
:100A500040F8043BAFF30080D20724BF11F8013BFC
:100A600011F801CB48BF11F8012B24BF00F8013B5E
:100A700000F801CB48BF00F8012B7047431A28BF8C
:100A80009A427FF6B6AF10441144032A40F2268002
:100A900010F0030F1EBF11F8013D521E00F8013D7A
:100AA00010F0030F7FF4F6AF11F0030300F06D8038
:100AB000083AC0F00B8051F8043D083A51F804CDD3
:100AC00040F8043D40F804CDFFF7F3BF121D5CBFB2
:100AD00051F8043D40F8043DAFF30080D20724BF35
:100AE00011F8013D11F801CD48BF11F8012C24BFC8
:100AF00000F8013D00F801CD48BF00F8012C704717
:100B000010B5203AC0F00B80B1E81850A0E818509A
:100B1000B1E81850A0E81850203ABFF4F5AF5FEAEA
:100B2000027C24BFB1E81850A0E8185044BF18C98F
:100B300018C0BDE810405FEA827C24BF51F8043B36
:100B400040F8043B08BF7047D20728BF31F8023B8A
:100B500048BF11F8012B28BF20F8023B48BF00F81E
:100B6000012B7047431A28BF9A427FF6C9AF104441
:100B7000114410F0030F1EBF11F8013D521E00F882
:100B8000013D10F0030F7FF4F6AF103AC0F00A8079
:100B900010B531E9185020E91850103ABFF4F9AFF8
:100BA000BDE81040530724BF31E9081020E90810C0
:100BB00044BF51F8043D40F8043D12F0030F08BF54
:100BC0007047D20728BF31F8023D48BF11F8012C09
:100BD00028BF20F8023D48BF00F8012C704702F002
:100BE000FF0343EA032242EA024200F002B84FF058
:100BF00000020429C0F0128010F0030C00F01B80EA
:100C0000CCF1040CBCF1020F18BF00F8012BA8BFF7
:100C100020F8022BA1EB0C0100F00DB85FEAC17CBB
:100C200024BF00F8012B00F8012B48BF00F8012B6E
:100C300070474FF0000200B513469446964620399F
:100C400022BFA0E80C50A0E80C50B1F12001BFF485
:100C5000F7AF090728BFA0E80C5048BF0CC05DF8EB
:100C600004EB890028BF40F8042B08BF704748BF39
:100C700020F8022B11F0804F18BF00F8012B7047AD
:100C80004FF0013C50F8042B51F8043B9A4221D11B
:100C9000A2EB0C03934313EACC1317D150F8042BA7
:100CA00051F8043B9A4215D1A2EB0C03934313EA8B
:100CB000CC130BD150F8042B51F8043B9A4209D1C4
:100CC000A2EB0C03934313EACC13DBD04FF00000EC
:100CD000704700BFD01A01BAB1FA81F101F01801D2
:100CE00022FA01F0CB40DBB2C0B2C01AC1F1200140
:100CF0002CFA01F3D11A914311EAC311E6D17047DE
:100D000070B5054601B90721541A241DB4F5B67F04
:100D100009DD286800F05DF9A04204DC2868401C69
:100D20002860012070BD002C05DA2868401E28606C
:100D300000F04FF90444072094FBF0F0401C70BD14
:100D40002DE9F04F1F4615468B468246002689B096
:100D500000F0A6F9D0F810800024BBF1000F70D08D
:100D600015F8010B10B125280DD10FE024B1641E38
:100D700006A850F82450F3E7002130460AF8061080
:100D800009B0BDE8F08F0AF80600C7E0E94615F89B
:100D9000010B592870D023DC49286ED014DC44287C
:100DA0006DD008DC2528EED041283ED0422849D01D
:100DB00043282CD156E04528E9D0462869D0472859
:100DC00076D0482823D17AE04D380C281FD2DFE8AE
:100DD00000F0881E061E1E9BA0A9B3B5C1CFD6E7A2
:100DE0005A38212813D2DFE800F011121212121221
:100DF000121A2637455012592612741212797E1291
:100E00008012891296A212B3BDCB1100A8E725204B
:100E10000AF80600761C5E4513D26D1EA0E7D8F8CE
:100E20000010BA69D8F8240011E0D8F80410BA69A3
:100E3000D8F828000BE0D8F808103A69D8F82C0048
:100E400005E0B2E0D8F80C103A69D8F8300002FB9F
:100E5000001101EB0809AAE006A840F82450D8F8D0
:100E600018108AE07969642091FBF0F21332484649
:100E700068A192E0FA6889E08AE022E0FFE706A82C
:100E800040F8245065A5641C6AE7FA6866A14846E4
:100E900083E006A840F8245064A5F4E7384600F043
:100EA000ADF8642190FBF1F201FB120258E0FFE77C
:100EB000384600F0A3F802465FA168466DE0BA68C4
:100EC00064E0B8680C210B3090FBF1F201FB1202D8
:100ED00005E0FA6959A14846521C5EE03A694DA105
:100EE000F9E77A6852E00A2116E0B8680C2802DABD
:100EF000D8F81010ADE7D8F81410AAE706A840F803
:100F00002450D8F8341038E006A840F824504DA5F5
:100F1000B9E73A683AE009210AF80610761C5E45FE
:100F2000B2D342E006A840F8245048A5ABE7BA691E
:100F300002B9072248A1AAE700210CE0786900F273
:100F40006C700890D7E9061208A8FFF7D9FE06E0F2
:100F5000BA69EFE70121D7E9062000F02EF8024632
:100F60002CA1AAE706A840F82450D8F81C1004E0E9
:100F700006A840F82450D8F8201001EB080582E7B5
:100F80007969642091FBF0F200FB121221A17EE747
:100F90007A69484628A102F26C7200F009F906E06D
:100FA0000AF80600761C5E4501D30020E8E619F831
:100FB000010B00283FF4DFAEF2E7511A00D5C91D3E
:100FC000401A01D500207047072190FBF1F0401C2A
:100FD000704781070CD1642190FBF1F201FB1201F3
:100FE00051B94FF4C87190FBF1F201FB120018B136
:100FF000002000F26D1070470120FAE708B5416942
:1010000001F26C710091D0E906126846FFF778FE94
:10101000009808BD252E326400000000256D2F25A4
:10102000642F2579000000002532640025592D2504
:101030006D2D25640000000025640000252E33641A
:101040000000000025483A254D00000025483A25BB
:101050004D3A255300000000252E316400000000A9
:1010600070B5064C7C44064D7D4404E02046016882
:1010700008448047241DAC42F8D170BD6CBE01000D
:1010800078BE010001491820ABBEFEE72600020031
:101090000048704714010020004870471C010020E0
:1010A0000048704734010020004870474C01002080
:1010B000704770477047704738B504460A460020AD
:1010C0006946AFF30080002808BF38BD024600998A
:1010D000204601F069FD012038BD012002F0B1BFBA
:1010E000F8B5AFF30080054600200C46102000BF85
:1010F0000646A819A0420DD9324669460020AFF332
:101100000080070008BF02F09CFF0098A04218BFB3
:101110000546C419FFF7C0FF05600746F01D20F023
:1011200007004619284600F00AF8B44208BFF8BD87
:10113000A21B31463868BDE8F84001F035BD0021FA
:101140000160C0E9011070471020704710B50446D7
:10115000FF2801D9002010BDFFF7D8F80068005D16
:1011600010F0980F03D0C10701D140F4806010F453
:10117000846F01D040F4006010F0BA0F01D040F449
:10118000807010F0BE0F01D040F40070810604D5CD
:10119000010602D440F0800001E020F02000C107E9
:1011A00001D0410601D5092CD5D140F4805010BDA5
:1011B0000FB41CB5084B06AA7B44694600900598FD
:1011C00000F0DDF804460020694600F0EBF8204608
:1011D0001CBC5DF814FB0000E90100007CB51D4655
:1011E00016460C00009001D02044401E074B7B4463
:1011F0002A4669460190304600F0C1F805461CB108
:101200000020694600F0CEF828467CBDBD010000F4
:1012100070B5044685690068C10601D5302600E036
:101220002026C00707D070BDD4E901213046904781
:10123000206A401C20626D1EF6D570BD70B5044654
:1012400085690078C00707D170BDD4E9012120204D
:101250009047206A401C20626D1EF6D570BD09685B
:101260004A0501D540B27047C905FCD500B27047A8
:1012700009684A0501D5C0B27047C905FCD580B2DE
:10128000704770B50C460546012A05D028788006BF
:1012900000D5EA69002302E0012305E05B1C9342CC
:1012A00002D2E05C0028F9D1A869E618C01AA8614A
:1012B000286A184428622846FFF7AAFF04E0D5E907
:1012C000012114F8010B9047B442F8D32846FFF7E8
:1012D000B5FF70BD2DE9F041064600241068752960
:1012E000314616A510D0FFF7BAFF002802DA4042B7
:1012F00013A507E031688A0701D512A502E0490766
:1013000004D511A5012401E0FFF7B2FF00210A2254
:1013100006F1240709E0B0FBF2FCB0FBF2F302FB9C
:101320001C00303078541846491C0028F3D123465D
:101330002A463046BDE8F04101F0B1BC0000000093
:101340002D0000002B000000200000001168026842
:10135000006A530501D508700AE0D30501D508805D
:1013600006E0130603D5C217C1E9000200E00860D9
:101370000120704701694A1C02610878704700B576
:101380008FB0CDE901310021059105497944CDE9BE
:1013900003101146684600F031F90FB000BD00009F
:1013A000E5FFFFFF0A6802F8010B0A607047D1E908
:1013B00000239A4202D2531C0B6010707047000049
:1013C0002DE9FF5F15468A460446DFF8AC80F844F5
:1013D0000027D8E900103E46CDE9001010E05AF889
:1013E00026106A4602A801F08EFA411C07D0217827
:1013F000890603D5E269391891420DD80744761C55
:101400002078800602D5E069B84205DDAE42E6DB11
:101410005AF826000028E2D1A069C01BA06120462E
:10142000FFF7F6FED8E90010CDE90010002017E024
:101430005AF828106A4602A801F065FAB0F1FF3F99
:1014400081460BD000250DF1080B05E0D4E9012100
:101450001BF8050090476D1C4D45F7D308F10100BE
:10146000B0428046E4DB206A384420622046FFF721
:10147000E5FEBDE8FF9F0000EE9501002DE9F0417B
:101480008046D21D22F007020025D2E90002F5298C
:1014900015A614D0011E72F1000106DA0023D0EB6C
:1014A000030063EB020211A608E0D8F800108B07D6
:1014B00001D50FA602E0490701D50EA60125114668
:1014C000002408F1240704E001F09BFB30323A5578
:1014D000641C50EA0102F7D12B46324621464046B1
:1014E000BDE8F04101F0DBBB000000002D00000072
:1014F0002B0000002000000030B4002100F1240483
:1015000008E002F00705D208303542EA4372DB08F2
:101510006554491C52EA0305F3D10468002310A264
:10152000250708D504F020040C4304D0C469012326
:101530000CA2641EC46130BC01F0B1BB10B50446FE
:1015400021461068FFF794FE02462046BDE8104091
:101550000023D1E7D21D22F00701D1E90023CBE718
:101560000000000030000000F0B40D4601880905BD
:1015700002D5214C7C4402E01F4C7C440E340021F7
:1015800000F1240608E002F00F071209E75D42EAC5
:1015900003721B097754491C52EA0307F3D10278FE
:1015A0000023120704D5702D06D009B1022311348F
:1015B0002246F0BC01F073BB01231034F8E770B58C
:1015C00004460D4621461068FFF752FE02462946A2
:1015D0002046BDE870400023C6E7D21D22F0070375
:1015E000D3E90023C0E70368126843F020030360D7
:1015F0000823C3610023B7E7509401002DE9F05F91
:10160000894604464FF0000ADFF874B1FB44C0F885
:1016100020A02046E1688847002874D0252806D0FD
:10162000D4E901219047206A401C2062F1E700269E
:101630005F462046E16888472028054607DB312DB4
:1016400005D2781910F8200C08B10643F1E7B0076D
:1016500001D526F00406C4F81CA00027C4F818A081
:101660002A2D09D0284617F072FC38B304EB8708FE
:10167000303DC8F8185019E059F8041B204604EB17
:1016800087029161E1688847012F054618D1E0691A
:10169000002820DA26F020061DE0D8F8180000EB1C
:1016A000800005EB40003038C8F818002046E1689B
:1016B0008847054617F04BFC0028EED1012F0AD0D1
:1016C0002E2D08D12046E16888477F1C0546022F51
:1016D00046F02006C4DBA069002803DA404246F049
:1016E0000106A061F00701D026F010066C2D0BD08A
:1016F000682D09D04C2D39D06A2D35D0742D35D0B8
:101700007A2D33D016E038E0E1682F46204688472E
:10171000B842054609D16C2F26D04FF48060E168AD
:10172000064320468847054604E06C2F1AD04FF444
:10173000807006430DB3A5F14100192802D8203569
:1017400046F400664A462946204626604E46FEF785
:1017500039FD80B101280BD0F61D26F0070000F1FD
:10176000080956E74020E4E78020D8E70020D6E7C4
:1017700006F104094DE7284652E7206ABDE8F09FCC
:10178000E09301002DE9FF4F1C4691464FF0FF35D5
:1017900081B000218A468846D4E90167A169029890
:1017A0006D1C8847216A834688470028F6D1BBF123
:1017B000FF3F0CD0002F26F4C0661ADD700615D549
:1017C000BBF12B0F0AD0BBF12D0F0FD104E04FF06E
:1017D000FF3005B0BDE8F08F46F48066A16902983D
:1017E0006D1C88477F1E8346002F02DDBBF1300F42
:1017F00003D0B9F1000F2AD025E0A1696D1C029831
:101800007F1E46F400768847002F834605DDBBF136
:10181000780F06D0BBF1580F03D0B9F1000F10D0EC
:1018200011E0B9F1000F02D0B9F1100F0BD1A1698D
:101830006D1C02987F1E26F4007688478346102090
:1018400000E0082081464FEAE970009017E00A2086
:10185000F8E74346AAFB0928DDF800C07F1E03FB1A
:10186000098046F4007605F101050AFB0C0112EB34
:101870000B0A029841EBEB78A16988478346002F59
:1018800006DD4946584601F01BFE5FEA000BE0D535
:10189000E16902988847B00502D46FF0010098E72B
:1018A000F00718D1700610D55146700505D50023F4
:1018B000D1EB030163EB080200E042462068031D00
:1018C00023600068C0E9001205E02068011D216066
:1018D0000068C0E900A828467BE72DE9FF5F1D46A8
:1018E0004FF0FF3B91464FF000085F46D5E90146B7
:1018F000A96901987F1C8847296A82468847002881
:10190000F6D1BAF1FF3F0CD0002E24F4C06419DDEB
:10191000600614D5BAF12B0F09D0BAF12D0F0ED1F4
:1019200003E0584604B0BDE8F09F44F48064A96920
:1019300001987F1C8847761E8246002E02DDBAF190
:10194000300F03D0B9F1000F26D032E0A969761E1E
:1019500001987F1C44F400748847002E824605DD00
:10196000BAF1780F06D0BAF1580F03D0B9F1000FD1
:1019700010D01EE0B9F1000F02D0B9F1100F18D14C
:10198000A969761E01987F1C24F40074884782465A
:10199000102002E0082000E00A20814609E0A96941
:1019A00008FB0908761E01987F1C44F400748847E0
:1019B0008246002E05DD4946504601F081FD002893
:1019C000EDDAE96901988847A00502D46FF00100BB
:1019D000A8E7E00725D1600613D5600502D5C8F158
:1019E000000000E0404629680A1D2A6009682205B7
:1019F00001D5087015E0220701D5088011E00860C4
:101A00000FE02868011D29600068210502D580F8D3
:101A1000008006E0210702D5A0F8008001E0C0F8B0
:101A2000008038467EE72DE9FF5F4FF000089946B9
:101A3000144646469169D2E901A7DDF838B001980D
:101A40008847054659EA0B0005D009E0A1690198CD
:101A5000761C88470546216A284688470028F5D124
:101A6000681C03D05FEACA7005D015E04FF0FF3064
:101A700004B0BDE8F09F2068011D2160D0F800800F
:101A80000AE05FEACA7001D108F8015BA169761C1F
:101A900001987F1E88470546002F1ADD681C18D064
:101AA000B9F1000F0DD0E81705EBD060421120F01E
:101AB0001F0059F822102A1A012090400142E0D15B
:101AC00007E0BBF1000FDCD12846216A88470028D7
:101AD000D7D0E16901988847BBF1000F07D1002EEC
:101AE00005DD5FEACA7002D1002188F80010A06805
:101AF000B84203DDBBF1000F03D017B16FF0010056
:101B0000B6E73046B4E700002DE9FF4F06468BB03C
:101B10000878FF2806D0491C2D2805D000244FF056
:101B2000000908E000200CE00124F8E709EB890334
:101B3000491C00EB43090878FF28F7D114B1C9F11B
:101B400000008146107800252C46AA4629462D28FB
:101B500001D02B2804D1521C2D2813D000208246FE
:101B60008B461078FF280FD04FF0000C0A21521C32
:101B7000A5FB017804FB018105FB0C11C5194BEB9A
:101B80000104EEE70120EAE7002108464FF00000DB
:101B9000BAF1000F02D000EB80004008C0F381577B
:101BA000012F01DD4FF0FF370E9955EA040009EBD4
:101BB00001080BD04FF0020918F5FA7F16DA4FEA48
:101BC000CA70002F706008DD012007E04FEACA707C
:101BD000C6E900B00FB0BDE8F08F00203060FEF71E
:101BE0009DFBC0F800901821084616E0B8F5FA7F72
:101BF00018DD002F02DAF748784401E0F64878440F
:101C0000D0E90010C6E9001040EACA707060FEF723
:101C100085FBC0F80090142108460FB0BDE8F04FD6
:101C200017F0BFBB002108464FF00000B8F10001DB
:101C3000099002DAC7F1000200E03A4601DAC8F181
:101C4000000106A801F074FE06AB93E8070003ABA1
:101C500083E8070044F23E005BEA04010090584626
:101C600004D144F21E012C465D460091210C09046A
:101C7000014306D10099240444EA15442D04103987
:101C8000009104F07F41014306D10099240244EA07
:101C900015642D020839009104F07041014306D10A
:101CA0000099240144EA15742D01091F009104F0E4
:101CB0004041014306D10099A40044EA9574AD0067
:101CC000891E009104F00041084304D100986D1969
:101CD0006441401E00904FF001033A466846B8F157
:101CE000000FCDE9014503A902DD16F064FF01E014
:101CF00016F037FFBAF1000F04460D4601D084F00C
:101D00000044002108464FF00000099940F2FF7797
:101D1000484010F00C0F07D124F00040284303D0B6
:101D2000C4F30A50B84212D1FEF7F8FAC0F8009096
:101D3000C4F30A50B8420AD1A8487844D0E9001048
:101D4000C6E9001004F000410843706042E7C6E9AC
:101D500000543FE72DE9FF4F1F464FF0000A4FF0B8
:101D6000FF38454691B0D7E90146CDF83CA0FFF7D2
:101D700097F9C0680168405C1090B96912986D1CB1
:101D80008847396A814688470028F6D1B9F1FF3F74
:101D90000AD0002E24F4D06411DDB9F12B0F08D045
:101DA000B9F12D0F0BD102E0404615B013E744F412
:101DB0008064B96912986D1C8847761E814660055B
:101DC00004A901D52D2000E02B20002E01F1010BEC
:101DD0000DF130088DF810003FDDB9F1690F08D022
:101DE000B9F1490F05D0B9F16E0F02D0B9F14E0F1C
:101DF0001CD13B4601A8009580E85002DDE9121293
:101E00006FF0020017F038FBC11CCED10EE0B969AB
:101E100012986D1C884781461398761E44F400740E
:101E200005600F98401C002E0F9016DDB9F1300FA1
:101E3000EDD0B9F1780F02D0B9F1580F0DD10F984C
:101E400001280AD13B46CDE90054DDE91212001FFA
:101E5000029617F00FFBC11CA7D1109989453ED1FE
:101E600044F0800406E01399681CAAF1010A44F4C6
:101E700000740860B9696D1C1298761E8847302876
:101E80008146F0D02BE01099894505D1200603D476
:101E9000761E44F0800418E0484617F058F808B35E
:101EA000761E0DF123029345A9F1300044F400742D
:101EB00006D20BF8010B200607D5AAF1010003E0BA
:101EC000200602D40AF101008246A00502D513992A
:101ED000681C0860B96912986D1C88478146002EFD
:101EE000D1DC53E0002E51DDB9F1650F02D0B9F11C
:101EF000450F4BD1A00549D5B9696D1C1298761EC6
:101F000024F440748847002E81460CDD2B2804D031
:101F1000B9F12D0F07D144F48074B96912986D1C82
:101F20008847761E8146E00501D52D2100E02B2152
:101F300008F8011BCDF8008021E0761E0DF1390173
:101F4000884544F400740CD2A9F1300010F0FF0071
:101F500088F8000002D10099884509D908F10108E4
:101F600006E0E00501D51E4801E042F20F7082460E
:101F7000B96912986D1C8847814613980560002E38
:101F800004DD484616F0E3FF0028D6D1F96912981F
:101F90008847FF2053468BF8000088F80000002097
:101FA0000A900B9004AA0CA90AA8FFF7ADFDA005A2
:101FB00002D46FF00100F8E614F0240F12D0E0070D
:101FC0001CD13868DDE90A12031D3B600068C0E9D6
:101FD000001213E024B0010016B00100DAAE0100D7
:101FE000F1D8FFFF0AA9684616F040FFE00705D1C7
:101FF0003868009A011D3960006802602846D4E6FE
:10200000026811441378016018467047D160054991
:1020100079445161044979441162002111611146EA
:1020200001F05CBAEDFFFFFF730C0000426842B1A3
:10203000016811F8013B23B1521EC0E90012184695
:1020400070470121C160881E704742685AB1C36859
:10205000016843B983688B4205D0491E521CC0E910
:102060000012002070474FF0FF3070470FB40B0094
:1020700010B54FF000048AB00FA900910E99CC6002
:10208000234C7C44234A7A44CDE9064200D0042301
:102090006FF00042CDE901321F4A7A446B46089244
:1020A0000246002017F0E4F90AB010BC5DF814FBFA
:1020B000F0B507464FF0FF301E4615460C463B462E
:1020C00085B06A460091CDE90101314600200490B7
:1020D00004A8FFF7CBFF04990346601825B109B1A6
:1020E000024600E022462A6000290ED0002B02DDC5
:1020F0000099814209D03B466A463146001B009454
:10210000CDE9010404A8FFF7B1FF05B0F0BD000060
:10211000A7FFFFFFC1FFFFFFEF0B000000230360DD
:10212000FFF7C6BF2DE9F04791460E4680460446AC
:10213000002514F8017B2FB1FEF7E8F80068C05DB8
:10214000C007F6D12B2F02D02D2F1ED0641E4A4679
:102150003146204601F07CFB26B13268A24201D113
:10216000C6F800804FF002046A0518D50023D0EBB2
:10217000030563EB01025D1B934109DB0023D0EBF8
:10218000030063EB0101BDE8F08745F48065DEE7FD
:10219000FEF7C4F8046000204FF00041F3E7021E90
:1021A00071F10002EFDAFEF7B9F804604FF0FF308A
:1021B0004108E8E72DE9F05F93460F468046044664
:1021C0000026FEF7ABF8D0F80090824614F8015BC9
:1021D0002DB1FEF79BF80068405DC007F6D12B2DAE
:1021E00002D02D2D1FD0641E0021CAF800105A46BF
:1021F0003946204601F02CFB024627B13868A04240
:1022000001D1C7F80080DAF8000002280ED0CAF821
:10221000009070050AD500200346D2EB000063EB66
:102220000101BDE8F09F46F48066DDE71046F8E75F
:102230002DE9FF4F4FF000089A461446C146464626
:1022400083B0D2E901B7CDF80080CDF80480916960
:1022500004988847109905465AEA010005D009E01C
:10226000A1690498761C88470546216A2846884754
:102270000028F5D1681C03D05FEACB7005D029E0B7
:102280004FF0FF3007B0BDE8F08F2068011D2160DE
:10229000D0F800801EE002A86A46E9B200F011FB07
:1022A000411C07D0801C09D04FF000095FEACB70B9
:1022B00007D009E0E169049888473DE04FF0010943
:1022C00003E0029948F8041B7F1EA1690498761C5C
:1022D00088470546002F1ADD681C18D0BAF1000F98
:1022E0000DD0E81705EBD060421120F01F005AF81E
:1022F00022102A1A012090400142CCD107E0109808
:102300000028C8D12846216A88470028C3D0E1693F
:1023100004988847B9F1000F0ED1109830B9002EFB
:1023200004DD5FEACB7001D1C8F80000A068B842B4
:1023300002DD109818B117B16FF00100A2E7304626
:10234000A0E72DE9FF4F9B46144683B000273D468A
:10235000D2E90196009701979169DDF848A00498A9
:10236000884780465BEA0A0005D009E0A169049825
:102370006D1C88478046216A404688470028F5D171
:10238000B8F1FF3F03D05FEAC97005D01AE04FF003
:10239000FF3007B0BDE8F08F2068011D216007689D
:1023A00010E05FEAC97007D16A464146384600F03E
:1023B000AAFA411C31D00744A1696D1C0498761E0D
:1023C00088478046002E15DDB8F1FF3F12D0BBF1E3
:1023D000000007D04346DDE9101201F09AFA002808
:1023E000DFD107E0BAF1000FDBD14046216A884710
:1023F0000028D6D0E16904988847BAF1000F05D1CA
:10240000002D03DD5FEAC97000D13870A068B042CA
:1024100003DDBAF1000F03D016B16FF00100B8E789
:102420002846B6E72DE9FF5F9B46144600273D4648
:102430009169D2E90196DDF840A00198884780466D
:102440005BEA0A0005D009E0A16901986D1C884784
:102450008046216A404688470028F5D1B8F1FF3F01
:1024600003D05FEAC97005D014E04FF0FF3004B02C
:10247000BDE8F09F2068011D216007680AE05FEA5F
:10248000C97001D147F8048BA1696D1C0198761EB3
:1024900088478046002E15DDB8F1FF3F12D0BBF112
:1024A000000007D04346DDE90E1201F032FA0028A1
:1024B000E5D107E0BAF1000FE1D14046216A884733
:1024C0000028DCD0E16901988847BAF1000F05D1F6
:1024D000002D03DD5FEAC97000D13860A068B0420A
:1024E00003DDBAF1000F03D016B16FF00100BEE7B3
:1024F0002846BCE72DE9F041044616460D464769DB
:10250000007B80072ED0384600F014FB50BB3EB352
:10251000012E02D0022E25D104E0204601F082FCDB
:1025200005441DE0384600F013FBE168002841F047
:102530001001E16005DA204600F058F80120BDE8FE
:10254000F081C9030BD56268E16A914200D8114657
:10255000A26911442269891A814200DD08460544B6
:10256000002D01DA0220EAE7E16A6068E268814250
:1025700006D29103E06203D522F4003141F010024B
:10258000A6690027AE4213DCE16A814201D90B46FD
:1025900000E0034603EB060C2369ACEB030CAC45EF
:1025A00006DD814201D98C4600E084469C4505D178
:1025B000A760276042F02000A5620DE0AD1BE66930
:1025C000AE1B8142A66000D90846C01A281A2060B6
:1025D0005819606022F0200003490840E0600020A4
:1025E00084F84870ABE70000BFCFD7FFC16821F483
:1025F000001141F08001C1600021816001607047DD
:102600002DE9F047814614460E464FF0FF38324818
:10261000D5685769054209D03846A16900F090FA9B
:10262000002811DB2C48C0430540E5602B463246AC
:102630004946384600F06FFAA16920F00042B21A0C
:1026400011440028A16103D02046FFF7CFFF404688
:10265000BDE8F08770B504460569C06A61688842C4
:1026600000D80846E16821F42011E160C90312D5C1
:10267000A84208D02246411B2846FFF7C1FF10B1EF
:102680004FF0FF3070BD0020E562C4E90150E06802
:1026900020F48030E060002070BD10B50446C068B2
:1026A00020F02000E060A16AA06988420DD0204699
:1026B000FFF7D0FFE06820F4405040F01000E060E9
:1026C000A06AA0612069E062606044F24001E068B5
:1026D0008843E06010BD00001000020010B54248C1
:1026E0005421FEF7A6FA41485421FEF7A2FA4048C9
:1026F0005421FEF79EFA3F493B483C4A3F4B086055
:102700003D490A603A491960531C0365481C10652D
:10271000012008653B48344A39A1784401F0C6FBE2
:1027200020B9384878440A3801F084FC37482F4AE9
:1027300035A1784401F0BAFB20B9344878440A380E
:1027400001F078FC32482A4A2FA1784401F0AEFB10
:1027500020B92F4878440A3801F06CFC4023224805
:10276000DC000021224601F07EFB20B125487844A0
:10277000543801F05FFC1D4822464023002101F03F
:1027800072FB20B121487844543801F053FC1848BA
:1027900022461023002101F066FB002806D01C48C9
:1027A0007844BDE81040563801F044BC10BD1048D4
:1027B00070B5006D20F001040B4801F0EFFB0B48F1
:1027C00001F0ECFB0A4801F0E9FB09E0206D20F084
:1027D0000105204601F0E2FB2046FDF7D2FD2C4624
:1027E000002CF3D170BD0000180000206C00002008
:1027F000C00000200000002004000020080000208D
:1028000072000000E382010077000000CF82010027
:10281000BB8201002DE9F8439946174680464FF0E8
:1028200000060C0002D18846012716A4B9F1000F5A
:1028300023D105210020AFF3008081461DE014F86C
:10284000011B4A46684600F03CF8761C0546401CD1
:102850000DD0AD1C11D0B8F1000F02D00099C8F80E
:1028600000100098002800D03046BDE8F883FDF73E
:1028700055FD042101602846F7E77F1EDFD26FF087
:102880000100F2E7000000007CB50C46054622B9C5
:1028900006210020AFF3008002462146684600F082
:1028A00032F80446401C07D025B122466946284626
:1028B000FEF79FF820467CBDFDF730FD0421016046
:1028C000F8E72DE9F04116460C460546FDF71EFDDA
:1028D000036893F80101012805D0185D80B101203B
:1028E0002C60BDE8F081D3F803013246214603F2A3
:1028F0000313C7182846BC46BDE8F04101236047D2
:102900004FF0FF30EDE72DE9F04116460C46054645
:10291000FDF7FCFC036893F80101012807D0FF2CA8
:1029200012D8185D80B101202C70BDE8F081D3F879
:1029300007013246214603F20713C7182846BC4652
:10294000BDE8F041012360474FF0FF30EDE72DE98E
:10295000F0410646FEF7A8FB8046454613E016B157
:10296000E068B0420ED120682860D4E90101D8F8AF
:10297000007088472046FDF704FDD8F80000B842F3
:10298000EBD100E025462C68002CE8D1BDE8F081B1
:1029900010B501F037FBBDE8104001F02EBB000080
:1029A000072811D2DFE800F00406080E100C0A0018
:1029B00006A070470BA0704714A070471EA0704778
:1029C00023A070472CA0704733A070474E6F20653E
:1029D00072726F7220286572726E6F203D203029EE
:1029E0000000000045444F4D202D2066756E637435
:1029F000696F6E20617267756D656E74206F757496
:102A0000206F662072616E67650000004552414E7E
:102A10004745202D2066756E6374696F6E20726560
:102A200073756C74206E6F74207265707265736557
:102A30006E7461626C650000454E4F4D454D202D12
:102A4000206F7574206F66206D656D6F7279000060
:102A500045494E56414C202D20696E76616C696463
:102A600020617267756D656E7420746F2066756E77
:102A70006374696F6E000000455349474E554D2001
:102A80002D20696C6C6567616C207369676E616C81
:102A9000206E756D62657200556E6B6E6F776E207D
:102AA0006572726F72000000920001F0D1BA0021CD
:102AB00001E0001D491C0268002AFAD1084670474F
:102AC00001B5FDF796FF01BD80E8FF1FC0F834D0C7
:102AD000C0F838E0C0F83CE04FF00000704700BF9D
:102AE00080EC200B704700BF80EC200B704700BFCC
:102AF000C0EC200B70470EB5CDE90001FDF74EFF8D
:102B0000029069460120ABBE0EBD08B56946009033
:102B10000220ABBE08BD1FB58DE807006946052041
:102B2000ABBE04B010BD1FB58DE80F00694606208E
:102B3000ABBEF6E708B5694600900920ABBE08BDFC
:102B40001CB5CDE9000169460A20ABBE1CBD70472B
:102B500008B5694600900C20ABBE08BD70477546AD
:102B6000FEF796FAAE4605006946534620F0070088
:102B7000854618B020B5FDF7AFFBBDE820404FF00B
:102B800000064FF000074FF000084FF0000BAC4676
:102B9000ACE8C009ACE8C009ACE8C009ACE8C009C1
:102BA00021F007018D467047034640688C46002897
:102BB00018BF88423CBF03464068F8D318681844E1
:102BC000884207D00CF1030020F00700001D411AD5
:102BD000521A0146081D0A60FDF7D3BBB2F120036B
:102BE0000AD5C2F1200301FA02F120FA03F341EA07
:102BF000030100FA02F0704700FA03F14FF0000001
:102C0000704730B5B0F10A0271F100034FEA900E3F
:102C10004EEA817EB0EB0E0061EB91014FEA101E8F
:102C20004EEA017E10EB0E0041EB11114FEA102E1F
:102C30004EEA016E10EB0E0041EB11214FEA104EEF
:102C40004EEA014E10EB0E0041EB1141401841F1EC
:102C500000014FEAD00040EA41704FEAD1014FEA4B
:102C6000810444EA907410EB800544EB01046D1973
:102C700044EB0404521BA3414FF0000348BF0A3247
:102C800000D530BD401C41F1000130BD10B50446F7
:102C9000FDF73CFB0068005D00F0010010BD2DE970
:102CA000F0470D4699469246044600F12408016813
:102CB000880604D5E06921F01001216000E00120C0
:102CC000A84201DD471B00E00027A1697A1902EB49
:102CD0000900081AA0612078C00602D42046FEF739
:102CE00097FA002608E0D4E901211AF80600904777
:102CF000206A401C761C20624E45F4DB2078C0061A
:102D00000AD52046FEF784FA06E0D4E901213020F6
:102D10009047206A401C2062381EA7F10107F4DCAE
:102D200007E0D4E9012118F805009047206A401C0B
:102D30002062281EA5F10105F3DC2046FEF77EFA8D
:102D40002078000602D50220BDE8F0870120FBE7CD
:102D50002DE9FF4F0C461E464FF0FF378BB0D2E9EE
:102D60000001DDF860800A908A46C1F30A5505B972
:102D70003D46002108464FF00000BAF1000F00F474
:102D8000400005DA00EB80004FF4400101EA5000FA
:102D90004FEA9059B9F1010F00DDB9460A9850EA9F
:102DA0004A000ED044F61050A5F2FF3545432F14CB
:102DB000B8F1000F1ED07542291E1EDDC9F10002B8
:102DC0001CE0B8F1010F4FF0000001D0302103E00A
:102DD000F24305E02154401CB042FBDB30460022A8
:102DE000002121540B99C1F80880C1E900200FB0DF
:102DF000BDE8F08FBD1B6D1CDEE74A4600DA694274
:102E000006A800F095FD06AB93E8070003AB83E846
:102E1000070050460A9915F0D1FB8DE80700A0F590
:102E200000501F3800900398002D0ADD42F21F0168
:102E30004A460844002303A90390684615F07CFE27
:102E400009E0A0F500504A461F38002303A903906B
:102E5000684615F09BFE8DE807000004000C03D0C7
:102E60004FF0FF30410800E01046B8F1000F03D0EA
:102E70000022009215461EE0751E05D4FFF7C1FE24
:102E8000303262556D1EF9D5B3460122084302D097
:102E900000227F1C04E02078302801D100227F1E10
:102EA000002A099784D01DE0112D07DAFFF7A9FE4B
:102EB000303262556D1C50EA0102F5D1084302D050
:102EC0000098C8B10EE00021681E05E0235C625C3A
:102ED00063542254401E491C8142F7DBAB46A81BB9
:102EE000401E0990002004F80B000B98099AC0F8C6
:102EF0000880C0E9002B7AE711264FF0000857E759
:102F00002DE9F04F88460446D21D22F0070191B00A
:102F1000D1E90001CDE90A0115F084FF02460B98C2
:102F2000C00F01D02D2007E02068810701D52B209C
:102F300002E0202101EAC000032A099001D0072AFB
:102F400005DB03464146204601F0A4F80BE120785A
:102F5000800601D5E06900E00620B8F1650F8146E2
:102F600006D0B8F1660F18D0B8F1670F70D131E014
:102F70000020B9F1110F009001DB112301E009F1EC
:102F800001030AAA01A90CA8FFF7E2FEDDE90C7013
:102F9000002609F10105834647E001204B460090D9
:102FA0004FF000470AAA01A90CA8FFF7D1FEDDE9FE
:102FB0000DB00C995D46002610B909F101000D18FD
:102FC000B9EB050003D4C0F1FF3609F10105A5EB0B
:102FD00009002BE0B9F1010F01DA4FF001090020DF
:102FE000B9F1110F0090484601DD112300E00346BE
:102FF0000AAA01A90CA8FFF7ABFEDDE90C704D464B
:1030000000268346207800070AD4AB4500DA5D46E7
:1030100001A8012D04DD411911F8011C302907D048
:103020004F4502DA17F1040F04DA012082460FE05F
:103030006D1EEEE7002F02DCED1B3E4403E0781C22
:10304000A84200DD7D1CB81B00F1010A4FF00047CB
:103050002078000703D4AA4501DB4FF0FF3A002196
:10306000B7F1004F0DF143088DF8431024D0022032
:103070002B23002F01DA7F422D230A21021EA0F10B
:10308000010000DC5FB197FBF1FC97FBF1F201FB63
:103090001C7C17460CF1300C08F801CDEEE7A8F1C6
:1030A000010003702188090501D5452100E0652153
:1030B000A0F1010800F8011C09980FA9A1EB08076D
:1030C000FF1D00B10120411901EBEA70A1693844EC
:1030D000081A401EA0612078C00602D42046FEF7E0
:1030E00097F8099828B1D4E901219047206A401C3B
:1030F00020622078C00622D52046FEF789F81EE01F
:10310000002E04DBB34502DD01A8805D00E0302025
:10311000D4E901219047206A401C2062761CAAF164
:1031200001005FEA000A0AD1FDF7BAFFC068016832
:10313000405CD4E901219047206A401C2062281E8F
:10314000A5F10105DCDC07E0D4E9012118F8010B49
:103150009047206A401C2062381EA7F10107F3DC6B
:103160002046FEF76BF8032011B041E62DE9F04F41
:1031700004460D46D21D22F0070089B0D0E9009721
:103180004846394615F04EFE0246F80F01D02D2371
:1031900007E02068810701D52B2302E0202101EA06
:1031A000C0038DF820300BB1012000E00020032A7D
:1031B000824601D0072A04DB2946204600F06AFF38
:1031C0003FE12078800601D40D2500E0E569C7F3D2
:1031D0000A560D2D49DA00214FEA175B08464FF0D9
:1031E0000000002F00F4400007DA00EB80004FF4ED
:1031F000400100EBD07001EA60008115012901DD7A
:103200004FF0FF3100224FEA850CBCF1180F06D3B6
:103210001346ACF118004FF08052C24003E04FF467
:10322000801323FA0CF30CF10C0CBCF1200F04D327
:10323000ACF1200C09FA0CF001E007FA0CF00029BF
:103240004FF0004801DD18B90FE00ED140450CD316
:1032500019EB02095F4121B9404502D19F4329EA98
:103260000209BBEB175F00D0761C2088000502D551
:103270007B48784402E07A487844193808AA302319
:1032800002F80A30037C0AF10101002E0AF1020A59
:1032900053546A4602DC4FF0300101E04FF0310137
:1032A0004FF001088DF8001002D0A6F2FF3603E0BF
:1032B00059EA470100D06B4E002D02DC2178090746
:1032C00004D54FF002082E218DF80110C4460021CC
:1032D0000BE0C7F303433F01C35C491C6D1E02F8BA
:1032E0000830052908F1010801DA002DF1DC002180
:1032F0000CE000EB1973491C1B786D1E082902F8BD
:1033000008304FEA091908F1010801DA002DF0DC54
:1033100021688B0602D516E0A8F10108E04505DD1D
:1033200002EB080313F8013C302BF5D0B8F1000F85
:1033300009DD02EB080313F8013C2E2B03D109072A
:1033400001D4A8F10108002D05DD3E2102F8081086
:103350006D1E08F10108407C002E02F8080008F1FB
:10336000010804DA2D20764202F8080002E02B2042
:1033700002F808000A214FF47A70864208F1010829
:103380000BDB96FBF0F3303302F8083096FBF0F3DA
:1033900008F1010800FB136601E0642E0CDB6420D9
:1033A00096FBF0F3303302F8083096FBF0F308F1A7
:1033B000010800FB136601E00A2E06DB96FBF1F024
:1033C000303002F8080008F1010896FBF1F001FB2B
:1033D0001060303002F80800A16908F1010808EB1C
:1033E000050202EB0A00081AA0612078C00602D488
:1033F0002046FDF70DFF216A08AE01EB0A002062AE
:1034000004E0D4E9012116F8010B9047BAF1010A52
:10341000F7D22078C00602D52046FDF7F9FE6E46A9
:1034200009E016F8010B3E280FD0D4E9012190479E
:10343000206A401C2062B8F10108F2D22046FDF754
:10344000FDFE09B00320BDE8F08F206A2844206209
:1034500003E0D4E90121302090476D1EEBD3F8E75B
:10346000AA77010002FCFFFF10B5436913B1AFF367
:10347000008001E0FDF705FF012010BD127800F18A
:1034800024010A7000224A700122EDE711684FF012
:10349000FF32E9E710B5436913B1AFF3008001E0F3
:1034A000FDF78EFF012010BD126800F12401426279
:1034B000002282620122EDE711684FF0FF32E9E756
:1034C0003A2800D2303820F02002412A01D3A2F15C
:1034D0003700884201D34FF0FF3070472DE9F34F9A
:1034E0004FF0000A0C4656468DB001200C9001F1B9
:1034F0000C000B9062690B9801219047051E2DD09E
:10350000252D2CD0216A8847C0B162690B98012112
:103510009047216A88470028F7D16269411E0B98BD
:10352000904700E0761CA1690D988847216A88477A
:103530000028F7D1E1690D988847DBE7A1690D986C
:103540008847A842074601D1761CD3E7E1690D9868
:1035500088477F1C02D1BAF1000F6FD06BE162691E
:103560000B9800273D46394690472A2804D16269C6
:103570000B98012190470125DFF8D08262690B98F2
:1035800001219047A0F130010A290AD24745E5DC24
:1035900007EB870100EB4107303FDFD445F0100512
:1035A000ECE7E90601D46FF000476C280AD04C28FC
:1035B00014D0682815D06A280DD074281CD07A2819
:1035C0001AD01DE062690B98012190476C2802D047
:1035D00045F0040514E045F002050DE045F0200536
:1035E0000AE062690B9801219047682802D045F0F3
:1035F000080505E045F4006562690B9801219047D4
:10360000C4E9015765283DD019DC58287AD00CDC74
:10361000452837D004DC252826D041289ED131E02A
:1036200046282FD0472899D12CE05B2877D06128F5
:1036300028D063287CD0642823D15AE0F6E06F2894
:1036400048D008DC66281DD067281BD0692821D007
:103650006E2816D127E0702845D0732868D07528C9
:1036600047D078280DD14DE0A1690D9888472528CD
:1036700005463FF469AFE1690D9888476D1C3FF43A
:103680006AAFD8E00D9923466A466FF0010015F045
:10369000EFFEC5E045F0400023464FF000026060B9
:1036A000A80736D43EE0E8077FF447AF2068011D45
:1036B00021600068290501D506701BE7290701D59F
:1036C000068017E7A90703D5F117C0E9006111E7E4
:1036D00006600FE745F0400023464FF008026060A7
:1036E000A80716D41EE040F60E0125EA010060602E
:1036F00016E045F0400023464FF00A026060A8073C
:1037000007D40FE045F040006060A80708D52346C5
:1037100010220D996FF00100FEF734F880E007E009
:10372000102223460D996FF00100FEF7D6F877E0DE
:103730004FF0000963284F46C8464B46CB4602D09F
:103740005B2806D038E0E80601D40120A0600127FC
:1037500032E06269D4F80CB00B98012190475E28E2
:1037600007D14FF0010949466269D4F80CB00B98B3
:103770009047216939B900210A4603AB43F821205B
:10378000491C0829FADBD8B3216949B308F10108BB
:1037900062690B98012190475D28F4D1B9F1000FBF
:1037A00009D0002003A951F82020D24341F820205D
:1037B000401C0828F7DB03AB2069002820794FEA7A
:1037C00040701ED05B462246CDF80080CDE90197BF
:1037D0000D9900286FF0010020DAFEF723FE1FE0AC
:1037E000C11703AA00EBD1614B1121F01F0102EBBD
:1037F0008302411A13680120884003431360C7E71E
:1038000019E00D99224600286FF00100009702DAB6
:10381000FEF70EFD04E0FEF706F901E0FEF791FD6C
:1038200000280ADA401C06D10C9820B14FF0FF3076
:103830000FB0BDE8F08F5046FAE7E90701D10AF171
:10384000010A064400200C9054E60000CCCCCC0CBD
:103850002DE9F74F4FF000091546CA46009C14F8B1
:10386000010B302801D0ADB115E014F8010B4FF079
:103870000109782803D0582801D04DB10BE00DB1D3
:10388000102D08D14FF0000914F8010B102502E0AB
:10389000082500E00A2500274FEAE57B3E46B846AA
:1038A00016E0A5FB07234FF0010905FB08000BFB01
:1038B0000731030C05FB0616D7181FFA80F846F1EE
:1038C0000006381E76F5803000D3CA4614F8010B86
:1038D0002946FFF7F5FD0028E3DA019838B1B9F180
:1038E000000F01D0641E00E0009C01980460BAF152
:1038F000000F08D0FCF712FD02210160C81E01462E
:1039000003B0BDE8F08F310441EA174148EA0740AF
:10391000F6E710B507E010C89C4204D10AB10020B8
:1039200010BD012010BD491EF5D2104610BD00008B
:103930002DE9F047814616468AB0354878440DC8CF
:103940008DE80D0032487844801C03AC0DC884E833
:103950000D0041F69B300844372190FBF1F290FBBB
:10396000F1F5A5F1800501FB12041B3C02D5644270
:10397000012000E00020DFF898A080460027FA44EC
:10398000AAF1BE0A0EE0E0070AD03246684607EB0D
:10399000470101230AEB810115F0F8F88DE80700D3
:1039A00064107F1C002CEED1194F7F44AE3F19E00C
:1039B000E80715D007EB04100DF1180A90E80E0087
:1039C0008AE80E00C068F04201D19819089032468A
:1039D000012306A903A815F0D9F803AB83E8070073
:1039E0006D10641C002DE3D14FF00103324669468F
:1039F000B8F1000F03A802D015F09EF801E015F011
:103A0000C5F8C9E90001C9F808200AB0BDE8F08787
:103A10007071010070B50D4601461446D3685069B7
:103A20002A46FFF780F8002807DA411C07D0E16832
:103A300020F0004041F48041E160281A70BD20462A
:103A4000FEF7D4FD4FF0FF3070BDC1680022026068
:103A500021F4805141F0400111F4C06FC16001D0E8
:103A60008260704702694168891AC269891A816057
:103A700070472DE9F0470446C06840F48000E060DC
:103A8000010312D520F40020E060810606D4E26A2A
:103A900061688A4200D80A46511A216040F4001039
:103AA000E06094F82500BDE8F08720F40010E060A5
:103AB000800602D52046FEF7F0FDE06842F2810163
:103AC0004FF0FF390140012903D02046FEF78EFD5B
:103AD000B6E02168002600290ADAC94340F4805084
:103AE0002160C4E902606068411C61600078DAE727
:103AF00044F2400108420CD020F4A04040F04000C5
:103B00002660E06021696068401AE169401AA0609F
:103B100096E0216991B9C00310D4E069FCF702FC7A
:103B20002061B0B1E06840F4006010F4407FE060D4
:103B300002D140F48070E06020696060E068D4F8F1
:103B400014A0C1061AD5C0030ED52046FEF782FD8B
:103B500014E004F1240020610120E061E06820F419
:103B6000407040F48060E6E721696068401AA1690E
:103B700001445046FEF7E4FF0028A6DBE068C003DE
:103B80002AD56168E06A884200D808462169451A4A
:103B9000E069471B1BD02046D4F81880FEF75AFD79
:103BA00008EB05015046C4F81880FEF7C9FF00284D
:103BB0008BDBE06840F40030E060000202D5A069D1
:103BC0002844A061E1692069C91B45180DE0204621
:103BD000FEF740FDE769F5E725696168D4E9060766
:103BE000491BE56208446560A061E06820F01000B0
:103BF00010F4C06FE06002D0204600F013FDE068D2
:103C000040F48050C4E90260000205D52069E062FA
:103C100060606FF0010046E7224639462846FFF70C
:103C2000F9FE411C0CD02918E16258B1401E2060F9
:103C3000681C6060E06840F40030E060287832E79B
:103C4000484630E765602046FFF7FFFEF8E72DE9BC
:103C5000F04705460C46C86820F4201040F4800068
:103C6000C860800602D50846FEF717FDE06841F2FD
:103C700082014FF0FF390140022903D02046FEF7B0
:103C8000B5FCB5E000F42041B1F5004F0FD1C00301
:103C900006D56168E06A884200D80846606006E0A0
:103CA0002069E06260606069FEF752FFA061A06871
:103CB0000022EEB200280DDAE1688B050AD4C04379
:103CC000A06041F490302260E0606068411C616057
:103CD0000670A5E0E0689046226040F40050E06085
:103CE000206968BB6069FEF725FF012704F1240500
:103CF000A0B1A08910F4407F08D0E069FCF712FB66
:103D0000206118B1E06840F4006016E0E7612561C9
:103D1000E06820F4407040F480600EE0E069FCF759
:103D200001FB00282061F1D0E06840F4006010F44D
:103D3000407FE06002D140F48070E0602069606004
:103D4000E06825696FF0010AC1051FD56168E06A66
:103D5000884200D80846411B04D022462846FEF778
:103D60004FFCF0BBE068010203D5E562C4E90158ED
:103D700054E0691CE1626160E16940F48030491EF1
:103D8000C4E9021030462E70BDE8F087010202D56A
:103D900000F480320AE06068411C61600670E068EF
:103DA0000A2E40F48030E06006D00022E16A6068AC
:103DB000814203D90B4602E00122F7E70346A789B7
:103DC0005B1B7F0503D4E7699F4200DDE2B18142BE
:103DD00000D80146E5620F1AC4E90158002B09DD3D
:103DE00000E005E0224619462846FEF709FC08B126
:103DF0004846C9E747B1A069E5626560C01BA0619C
:103E0000E06840F01000E060E068000208D56168FA
:103E1000A069E562491B08446560A0615046B3E7AC
:103E20003046B1E710B50146C268900703D090064E
:103E300007D5886A0AE0FCF771FA01210160881E43
:103E400010BD8B69486818440B69C01A91F8483056
:103E50001BB191F84910401A10BD1103FCD5002880
:103E6000FADD401E10BD70B5C468A50713D0650209
:103E700011D4B2F5807F09D0B2F5007F06D0B2F53B
:103E8000806F08D1012300F1240106E05D1E6FF070
:103E90007F46B54201D3012070BD0161C36141601D
:103EA00024F470611143C160002070BD2DE9F04120
:103EB0000C461646070047D0104600F06FF82078F1
:103EC000611C61280AD0722802D077283CD102E018
:103ED0000125002405E00225042402E0082448F21C
:103EE000020511F8010B2B2806D0622809D011F821
:103EF000010C74280AD00BE045F0030544F00204DD
:103F0000EFE745F0040544F00104EAE744F010044B
:103F100038462146FEF7EFFD411C15D000213161E6
:103F200071604FF40071F560F1617061200704D594
:103F3000304602220021FEF7DDFA306D40F001002C
:103F400030653046BDE8F0810020FBE72DE9F04107
:103F50000D460646104C206DC10704D0410804D020
:103F600020F00104F7E722460EE05420FCF7DAF9CE
:103F700007000ED0206D47F0010108435421206551
:103F80003846FCF756FE3A4629463046BDE8F04131
:103F90008CE70020D6E70000180000202DE9F0474C
:103FA00004464FF000094FF0FF37C568D4E9048696
:103FB000A80707D02046FEF74DFB3046FEF7A5FDCB
:103FC000002802DA3846BDE8F087280502D54046C9
:103FD000FCF7D7F94C212046FCF72BFE206D20F092
:103FE000010020654846EEE710B50446AFF30080B7
:103FF0002046BDE81040FCF75AB9002801D0FDF773
:1040000041B8704710B5002102A000F027FB012045
:1040100010BD0000534947414252543A2041626E5C
:104020006F726D616C207465726D696E6174696F19
:104030006E00000010B500F02BFBBDE81040FFF74C
:10404000DCBF10B500F03EFBBDE81040FFF7D5BF68
:1040500001B5FCF713FD01BD86469EE8FF1FDEF8A3
:1040600034D0DEF83CE0704790EC200B704700BF86
:1040700090EC200B704700BFD0EC200B704710B5C0
:10408000FCF74CF9006810BD10B50446FCF746F982
:10409000046010BD2DE9F0411F4604460326016867
:1040A000072A01F4006004DB08B116A505E016A597
:1040B00003E008B115A500E015A521F0100020606F
:1040C000A069C01EA0610FB1401EA0612046FDF78F
:1040D0009FF84FB1D4E9012138469047206A401C2F
:1040E0002062C01C206206E0206AFAE7D4E90121C0
:1040F00015F8010B9047761EF8D22046FDF79EF882
:10410000BDE8F0814E414E006E616E00494E4600A2
:10411000696E66002DE9FF4F1F464FF03C0987B0DE
:104120004FF00042DDE9141001F10108DDF858A05C
:1041300002EA40500390002005908346054604465D
:104140000490B969461E08988847AAF1010A0290AE
:10415000BAF1000F3BDD02982E2815D01021FFF791
:10416000AFF900282EDB4FF0010B0599014317D062
:10417000B9F1000F0BDB4A46C117FEF72FFD0543CF
:104180000C43A9F1040905E0012004900BE008B1FB
:1041900045F0010501200590049820B9361D02E084
:1041A000049800B1361FB969089808F101088847DA
:1041B000BBF1000FAAF1010A0290C9D00999C1F818
:1041C0000080C5E70298702808D0502806D0F96909
:1041D00008988847BBF1000F14D04FE000200290F0
:1041E0000120BBF1000F049009D0B969089808F1CB
:1041F00001088847AAF10109B9F1000F07DCF96944
:10420000089888476FF001000BB0BDE8F08F2B28AD
:1042100004D02D280CD14FF0FF300490B9690898D4
:1042200008F101088847A9F10109B9F1000FE6DD9D
:10423000411CE4D00A21FFF743F90028DFDB029993
:1042400008F1010801EB810100EB41000290B9691E
:10425000089888470A21FFF733F9099AA9F101095B
:10426000B9F1000FC2F8008001DD0028E7DAF96932
:10427000089888470499029800FB016655EA0400F3
:1042800004D004F04041090002D006E0039898E011
:10429000A40044EA9574AD00B61E04F00041080085
:1042A00002D16D196441761E159810F0240F03D0C9
:1042B0004FF00B095C4803E04FF028096FF07D00D8
:1042C0008246564507DAAAEB06018944B9F1410F47
:1042D00001DD4FF0410901200021A9F10102FEF7A3
:1042E0007DFC024628400B462140084301D00121B5
:1042F00000E00021501E029143F1FF31284021408F
:10430000084301D0012000E000200299834651EAD1
:104310000B014FD0002108464FF00000039900F434
:10432000400039B100EB80004FF4400100EBD07049
:1043300001EA60008015012802DD4FF0FF3000E047
:1043400013D0401C36D0029860B3BBF1000F0CD1E3
:104350004A4601200021FEF741FC28402140084345
:1043600001D0012000E00020E0B101204A460021F8
:10437000FEF734FC034640190A4661412D1A8C4170
:1043800011D3B9F1400F09DD159810F0240F02D0B8
:10439000AAF1340603E0AAF1170600E0761C002516
:1043A0004FF0004406E05B1E42F1FF3220EA0305B5
:1043B00021EA0204CAF10100B04206DA1B4903985F
:1043C00008430190002000900EE0039AC4F3D3212B
:1043D000E80A0A43164940EA44500A433146CDE907
:1043E0000002684614F0A8FD159810F0240F0BD0B9
:1043F0001598C00715D13868DDE90012031D3B6030
:104400000068C0E900120CE002A8694614F02EFD15
:104410001598C00705D13868029A011D39600068F7
:1044200002604046F0E6000002FCFFFF0000F07F63
:104430000000F03F2DE9FF4F92461D4685B04FF03A
:104440000041DDE9124BDDE914727F1E01EA4B5099
:10445000414940F0FF4940EA0108002122F02000D4
:104460004928049102D04E2828D04CE03BA00126D8
:1044700007C88DE80700A9690698641C88477F1E55
:10448000014606D41DF8060018B121F02001814232
:104490000BD0E96906988847032E34D0082E32D015
:1044A0006FF0010009B0BDE8F08F761C032E01D03B
:1044B000082EE0D1601CCAF80000DCE7A969069864
:1044C000641C88477F1E2AD420F02000412826D172
:1044D000A9690698641C88477F1E20D420F020001C
:1044E0004E281CD1A9690698641C88477F1E48F491
:1044F000002849F48009CAF8004001D4282806D0D1
:10450000E969069888475FEACB7012D022E0A96972
:104510000698641C88477F1E01D4002803DAE969E5
:1045200006988847BCE72928F1D1641CCAF80040E6
:10453000E9E71BF0240F07D028680499031D2B60BE
:104540000068C0E9001805E02868021D2A600068BC
:10455000C0F800902046A5E70000F07F494E46498C
:104560004E495459000000002DE9F0471C46924680
:10457000804602FB01F511B3A76800203DE0002F43
:104580003DDCE069A8421DDAB9F1000F1AD02246DD
:1045900029464046FEF734F808B1A7602AE0E068F3
:1045A00010F4C06F01D0002008E022696168891A08
:1045B000E269511AC003A16001D44842A06050468C
:1045C000BDE8F087A84203DAE06840F40000E0604C
:1045D000214698F80000FFF73AFBE16821F400015A
:1045E000E160411C06D0A768002805DB6D1E08F1BC
:1045F000010813E00020E3E7012081460EE0AF420E
:104600003E4600DD2E46414632466068FCF7F1F931
:104610006068BF1BAD1B3044B0446060002DAEDC51
:10462000A760CCE770B5054640F202260A4C0FE0C1
:1046300094F85000C00708D0AC4206D0E06836EAD3
:10464000000002D12046FCF711F8206D20F0010493
:10465000002CEDD170BD00001800002070B505469B
:104660000C460A2000E06D1C00F054F835B12878A3
:104670000028F8D102E0641C00F04CF814B1207856
:104680000028F8D1BDE870400A2000F043B80000CF
:1046900010B5014602A0FFF7E1FF012010BD0000A8
:1046A00053494752545245443A20526564697265F1
:1046B00063743A2063616E2774206F70656E3A20D0
:1046C0000000000010B5012805D0002103A0FFF76D
:1046D000C5FF012010BD09A1F8E70000534947526A
:1046E000544D454D3A204F7574206F6620686561C2
:1046F00070206D656D6F7279000000003A2048658A
:104700006170206D656D6F727920636F7272757064
:104710007465640008B569468DF800000320ABBEDF
:1047200008BD0000FFE7FEE77047000088B0079073
:104730000691002005900490039002900190009053
:104740000698806800F00F0005900698007AC00671
:10475000002806D5FFE706984068059908430590AC
:10476000FFE70698007800284FD0FFE70798006819
:10477000019000200390FFE70398072841D8FFE746
:104780000398012101FA00F002900698008802992E
:10479000084004900498029988422DD1FFE70398BD
:1047A0008000029002980F2101FA00F0009000981A
:1047B000019921EA00000190059802998840019929
:1047C0000843019006988068282807D1FFE70398DE
:1047D000012101FA00F0079948610CE00698806811
:1047E000482807D1FFE70398012101FA00F0079953
:1047F0000861FFE7FFE7FFE7FFE703980130039059
:10480000BAE7019807990860FFE706980088B0F5B5
:10481000807F51DBFFE707984068019000200390FC
:10482000FFE70398072843D8FFE7039808300121E2
:1048300001FA00F00290069800880299084004905E
:104840000498029988422ED1FFE7039880000290D5
:1048500002980F2101FA00F000900098019921EAD6
:104860000000019005980299884001990843019041
:1048700006988068282808D1FFE7039808300121AE
:1048800001FA00F007994861FFE706988068482818
:1048900008D1FFE703980830012101FA00F00799D9
:1048A0000861FFE7FFE7FFE7039801300390B8E7EF
:1048B000019807994860FFE708B0704782B00190FF
:1048C000ADF80210BDF802000199486102B07047CE
:1048D00082B00190ADF80210BDF8020001990861A4
:1048E00002B07047FFE7FEE7FFE7FEE77047000012
:1048F0007047000082B0019001200090009848B1FC
:10490000FFE7019841F21801C4F202010A6810435E
:10491000086009E0019841F21801C4F202010A6836
:1049200022EA00000860FFE702B07047704700000D
:1049300080B500F001F880BD82B0002001900090A9
:1049400041F20000C4F20200016841F480310160CC
:10495000FFE741F20000C4F20200006800F40030FA
:104960000090019801300190FFE70099002031B9D3
:10497000FFE70198B0F5A06018BF0120FFE7C0076E
:104980000028E6D1FFE741F20000C4F2020000680F
:104990008003002803D5FFE70120009002E00020FB
:1049A0000090FFE70098012879D1FFE742F200006C
:1049B000C4F20200016841F010010160016821F0B9
:1049C00003010160016841F00201016041F204004D
:1049D000C4F202000168016001680160016841F4ED
:1049E0008061016041F22C00C4F2020001684FF2C4
:1049F0000002CFF6FE7211400160016840F244628D
:104A0000C0F201021143016041F20000C4F2020051
:104A1000016841F080610160FFE741F20000C4F2EB
:104A2000020000680001002801D4FFE7F5E741F229
:104A30000400C4F20200016821F47C1101600168E5
:104A400041F4E811016041F20000C4F20200016883
:104A500041F080710160FFE741F20000C4F2020002
:104A600000688001002801D4FFE7F5E741F2040067
:104A7000C4F20200016821F003010160016841F005
:104A800002010160FFE741F20400C4F20200006885
:104A900000F00C00082801D0FFE7F4E700E0FFE792
:104AA00002B0704780B513F081FD80BD80B541F242
:104AB0000000C4F20200016841F00101016041F20E
:104AC0000401C4F202010A680023CFF2FF031A4076
:104AD0000A6002684FF6FF73CFF6F6631A40026071
:104AE000026822F4802202600A6822F4FE020A6050
:104AF000016821F0A051016041F20800C4F20200F7
:104B00004FF47F01016041F22C00C4F20200002149
:104B10000160FFF70DFF4EF60850CEF200004FF097
:104B20000061016080BD0000FFE7FEE710B540F2C4
:104B30007874C2F2000420460FF04AFC44F245406B
:104B400040F20002C0F60100C0F600022146BDE8B6
:104B50001040FBF7D3BB40F27970C2F200000FF0B7
:104B600037BC10B540F27A74C2F2000420460FF050
:104B70002FFC44F2454040F20002C0F60100C0F6AE
:104B800000022146BDE81040FBF7B8BB13F02ABA7B
:104B90007047826812B1014601201047704780B506
:104BA0008AB0694613F032FB0299002818BF002131
:104BB00008460AB080BD80B58AB0694613F026FB6E
:104BC0000099002818BF002108460AB080BD0000E7
:104BD00070B5ADF5407D62AD04462846FDF774FF23
:104BE00000206E46E0603046294613F033FBB6A93C
:104BF000304613F00BFBA8B96D46B6AEB99B5BB15E
:104C0000B698BB99BE9AC4E91202216500202146DC
:104C10002A469847082809D12846314613F0F6FA63
:104C20000028EBD003200DF5407D70BD062803D091
:104C3000092818BF0320F6E762A869462246002328
:104C400000F0E8F90220EEE7B0B5ADF5367D62ADD3
:104C500004462846FDF738FF6946284622460123C8
:104C600000F0D8F9FBF778FE70B5049C15460129D1
:104C700006460BD029BB0F2D4FF0020015D8A3B963
:104C800030462946224613F0CFFA15E023F00400FF
:104C9000012809D1012B05D10F2D05D8304613F07D
:104CA00005FB03E01F2D01D9022070BD05F58071C1
:104CB0003046224613F093FA002818BF0120400026
:104CC00070BDFBF749FE00002DE9F04F81B09A421C
:104CD000044680F0F3801D468A460026EB462027D6
:104CE00082F003001AF8009002F101085FEA0960FF
:104CF0000ED420460D215A4613F096FA5FEA496019
:104D00004FEA89002AD400990844021D2BE000BF15
:104D100009F0F00080380009052800F2DB80DFE8A8
:104D200000F003283744607BA84580F0D38088F0EA
:104D300003014FEA09301AF8011080B240EA01136A
:104D4000002B00F0C78009F0080002F1020846EAD3
:104D5000D006204600211A4625E000BF009900F049
:104D6000FC00081A021F009220460D2113F0BCFA25
:104D70009EE049F0020000F00F000F2800F0AA802A
:104D800009F00F0120465A4613F04EFA009AEBE75D
:104D900009F0070007FA00F0103809F0080140EAAE
:104DA000C12220460021002380E0A9F1B00107299B
:104DB0003FD80920DFE801F08004446B8F8F8F8F8C
:104DC000A84580F0878088F003001AF80030092099
:104DD000002B00F0808013F0F0017CD102F102087A
:104DE000B7E709F0FE00C82874D188F003001AF86C
:104DF0000010A9F1C800B0FA80F040090B0943EA9D
:104E0000001001F00F0143181F2B63D841EA004046
:104E100002F10208421C08E05FEA09705AD401213D
:104E200009F00700C0F208014218204601210523BD
:104E30003CE0012109F00700C0F20801421831E00E
:104E4000B1460026002000BFA84543D288F00301E8
:104E50001AF8011008F1010701F07F0282401643A1
:104E600007300906B846EFD420460D215A4613F004
:104E7000DBF900980D2100EB860000F50172204659
:104E8000009213F031FAB8464E46202710E088F021
:104E900003001AF8000002F1020840EA003000F0B6
:104EA0000F10421C20460121012300BF00F016F81C
:104EB000A8454246FFF414AFF00709D16A462046E0
:104EC0000E2113F0B1F9009A20460F2113F00CFACD
:104ED000082000E0092001B0BDE8F08F2DE9F04185
:104EE00086B01E4615460129044625D000295FD10B
:104EF00066BB02AA20460D2113F096F930BB0027AD
:104F0000002600BF25FA06F0C0070ED002983146F1
:104F100050F8042B0290204613F0E6F9B0B9A6F140
:104F20000D00B0FA80F0400907430136102EE9D198
:104F3000F80733D000200AE026F00400012805D14C
:104F400005AA20460D2113F06FF918B1022006B012
:104F5000BDE8F081A8B2C8B12F0C00EB15450DF1EA
:104F6000080800BF05983A4600F10801059103C8FA
:104F70003346CDE9020120460121CDF8008000F042
:104F800019F80028E2D10137AF42EBD3012E03D14B
:104F90000598021D059202E0059A00E0029A20465B
:104FA0000D2113F0A1F9002818BF01204000CEE721
:104FB000FBF7D2FC70B5049E1446012905460BD0C0
:104FC00031BB0F2C4FF0020015D8A3B93268284628
:104FD000214613F089F916E023F00400012809D1D5
:104FE000012B05D10F2C05D8284613F05FF903E0FB
:104FF0001F2C01D9022070BDD6E9002304F5807171
:10500000284613F056F9002818BF0120400070BD53
:10501000FBF7A2FC2DE9F0478CB00C460146204678
:105020009A46154613F016F901260DF12C080DF1DC
:1050300004091AF001004FF0010718BF022708D039
:105040003EB92A6920464FF0FF3113F04DF94FF079
:10505000000A20466FF00101424613F0E5F82046B1
:10506000494613F0D3F820BB049B8BB101980699F5
:10507000099AC5E912022965384629462246984709
:1050800007280BD0082805D10B98296A884203D03D
:10509000013ECEE709280CD1FBF75EFC6A462046AC
:1050A0004FF0FF3113F0C0F800982861204613F04C
:1050B000F4F80CB0BDE8F08780B582B0009000989D
:1050C0000138B0F1807F03D3FFE70120019016E0A3
:1050D000009801384EF21401CEF20001086000F091
:1050E00011F84EF21800CEF20000002101604EF2DD
:1050F0001000CEF20000072202600191FFE702B02B
:1051000080BD000082B04FF0FF3001900F20009072
:105110000198002809D4FFE70098000101994EF298
:105120000042CEF2000288540AE000980001019982
:1051300001F00F014EF61452CEF200028854FFE740
:1051400002B0704712F02DBB80B5AFF30080BDE810
:10515000804012F01CBC80B5AFF30080BDE88040F9
:1051600012F015BC03C844F64E42C0F24302000AD6
:1051700082EA112240EA016042F62B31C4F2437107
:1051800048401043B0FA80F04009704780B5AFF353
:105190000080BDE8804012F0FABB40F2E411C2F298
:1051A0000001884238BFFBF7ECB801F50071884276
:1051B00001D200F059BCFBF7E4B810B582B0044648
:1051C000002808BF012401A808212246FBF762F944
:1051D00018B1204600F0ACFC00E0019802B010BD10
:1051E0002DE9F04F8FB08A4618219846174604469D
:1051F000FBF71FFD03201AF00106A06108D15FEA4A
:105200008A7008D50AF00C000C2809D1022003E0AE
:105210001AF00E0F04D00320A0610FB0BDE8F08F8C
:10522000DDF860904846FFF7BAFC00280D9000F0CA
:105230004E810546CDE90464E06000200E900DF13A
:10524000380C484600210F2200230897CDF828800B
:10525000CDF800C0FFF708FD0E9820F00108484681
:10526000FFF7A9FC0746681C0D9029780DA86FEA86
:10527000070900F0C5F90D99002811F8012B08BFA6
:1052800038460990FF2A4FF000000D910CD0002203
:1052900011F8013B03F07F0787403A431B0600F1FA
:1052A0000700F5D488180D9111F8015B0B90C844E4
:1052B00000200022CDF80CA00D9100BF11F8013B99
:1052C00003F07F0787403A431B0600F10700F5D43F
:1052D00001EB020B0EAF0D910E9100BF594524D288
:1052E0003846294600F08CF981463846294600F0B8
:1052F00087F982463846294600F082F90E99002344
:10530000002200BF11F8014B04F07F069E4032439B
:10531000260603F10703F5D4C1450E9103D80AEB25
:105320000903984505D3C845D8D208980A9900F0D2
:1053300059F9002800F0D9800999002A00EB0103EF
:1053400000F0C78003990BEB0200A0F1010A01F005
:105350000600069001F00500079001F00800099092
:105360000A9842F60138C4F22B3800F158044FF085
:10537000FF37029300200021D14600BF19F8012B0E
:1053800002F07F0383401943130600F10700F5D4B0
:1053900052060D4607FA00F348BF1D43202828BFD8
:1053A0000D46012D3ADB0B980028BED0A0EB8500FE
:1053B000016859B3006800BF40B30646089800284A
:1053C0006AD00A9803C800BF44F64762C4F24C3260
:1053D000514080EA08000843204602D10A9850F85C
:1053E000240C00280C9000F0BB800A9850F8201C78
:1053F000002900F0B58030680CAA03693046984750
:10540000002849D0049800283DD092E00798002851
:105410006FD1099800283FD187E700BFB5F1FF3F62
:1054200003DD0698022837D168E0089870B30A981F
:1054300003C800BF44F64762C4F24C32514080EAD0
:1054400008000843A046264602D10A9850F8246C6A
:105450000A9C002E00F0888054F8203C002B00F0BD
:1054600083804FEAE57B0B9A2846594600960194C3
:1054700000F066F9444642F60138C4F22B3858B1C0
:105480000498002862D1099830B969E0079880BB78
:10549000099800286CD000BF002000214A4600BFB8
:1054A00012F8013B03F07F06864031431E0600F1EF
:1054B0000700F5D45A060A4607FA00F648BF3243F9
:1054C000202828BF0A4682B109EB020A52E70820C9
:1054D000A2E6039800F00600022806D105990020F4
:1054E000C1E9000006200B6101E0059908208861F0
:1054F00093E62646059CE817256003E02646059CB2
:10550000002020606060C4F808A0029820610A9D15
:10551000284603C800BF44F64762C4F24C325140EB
:1055200080EA0800084308BF55F8246C062066612D
:1055300072E6059AE817C2E900500C98029B062112
:10554000C2F808A0C2E90430916166E60599062018
:10555000C1E9005B029AC1F808A0C1E90426C6E7C8
:105560000A99012000F03EF80120214600F03AF8A7
:105570000A99002000F036F810B50446283012F0E1
:105580004DFA606912F00EF9F0B583B015460C467D
:10559000029002AE08460021002200230096002758
:1055A000FFF708FD28680021029020460122002311
:1055B0000096FFF7FFFC2D69204600210F220023F3
:1055C00002970096FFF750FB0298002100F00100BF
:1055D0002843029020460F2200230096FFF7EAFCA2
:1055E00003B0F0BDB0B5054608460C4612F016FAF9
:1055F0001DB154F8140C12F0D5F812F05BF900004C
:1056000070B5FF291CD001F00F020C2A00F28B802C
:10561000D0F800C0DFE802F05828380717878787DE
:10562000873F690717009CF800209CF802309CF81F
:1056300003609CF8015043EA062342EA05224FE04A
:105640004FF0000E6DE09CF800209CF802309CF8B2
:1056500003609CF8015043EA062342EA052242EA2D
:10566000034E0CF1080648E000224FF0000E66469B
:1056700016F8013B03F07F0494404EEA040E1B062B
:1056800002F10702F4D438E09CF800209CF80130C5
:1056900042EA032E2FE000220024664616F8013B62
:1056A00003F07F0595402C431D0602F10702F5D457
:1056B0004FF0FF35A64695405B0648BF4EEA050E03
:1056C000202A28BFA64618E09CF800209CF802304B
:1056D0009CF803509CF8014043EA052342EA042267
:1056E00042EA034E0CF1040607E09CF901209CF805
:1056F000003043EA022E0CF10206C1F302122AB175
:10570000012A10D1BEF1000F08D0E644BEF1000F0F
:1057100004D0090648BFDEF800E001E04FF0000EBB
:105720000660704670BDFBF717F9012803D101F13F
:10573000580012F092BA80B551F8140C12F032F8F9
:105740002DE9F04182B0E2B1DDF82080C0431C4673
:1057500002EB800001AD00BF076867B1061D00685D
:1057600000BF01682A460B692146CDF8048098479E
:1057700000283046F0D0B7FA87F0400902B0BDE803
:10578000F08109990020FFF72DFF0000B0B5D2B0DD
:105790000490049C12F04CFEE060E06840F6DC01EE
:1057A000C2F200010968884201D1FFE7FEE0E0682B
:1057B00040F6DC01C2F200010860FFE7E16840F258
:1057C0000C50C2F200000CF013F8069043F21110D6
:1057D000C0F6010005900698059988470794079838
:1057E0000990099840680AA90C910B900C980B99A4
:1057F00001600A98089008980390FFE711941198A7
:10580000139013981590159816901698179017984E
:10581000189018981990199814A91B911A901B9810
:105820001A990160149812901298029003A845905A
:1058300002A844904598449947904691479800683B
:1058400046990968884200F0B080FFE703A84D90B0
:105850004D9800684E904E984F904F9850905098A9
:105860005190519880684068E168884240F08D808E
:10587000FFE703AD489548980068499049984A90D9
:105880004A984B904B984C904C98806800688047A1
:105890003F953F98006840904098419041984290D1
:1058A0004298439043988068C0680130F0B1FFE7A8
:1058B000E06803A93A913A9A12683B923B9A3C926B
:1058C0003C9A3D923D9A3E923E9A9268926810446C
:1058D00035913599096836913699379137993891CC
:1058E000389939913999896848604DE0E16803A891
:1058F0003090309A12683192319A3292329A3392C1
:10590000339A3492349A9268926811442B902B9A6D
:1059100012682C922C9A2D922D9A2E922E9A2F92BA
:105920002F9A9268516026902699096827912799A5
:1059300028912899299129992A912A998968CA68D0
:10594000013ACA6021902198006822902298239001
:10595000239824902498259025988068C06890B951
:10596000FFE703A81C901C9800681D901D981E90CE
:105970001E981F901F982090209800F10801204643
:105980000DF002FCFFE7FFE7FFE7FFE703A80E903B
:1059900000200D900E9801680F91109010980168EA
:1059A000496801600F98019028E7FFE752B0B0BD49
:1059B00080B582B001900091019869460DF0FAFD22
:1059C00002B080BD10B59CB004900391049C059476
:1059D000059808900898099009990A910A9A0B92DB
:1059E0000B9A0C920C9A1192119A0A600E910E9ACF
:1059F0000F920F9A1092109A0D920D9A4A600830E9
:105A000000210791149007A8139006A812901498EB
:105A10001399159115991A9019911A99199A1B921F
:105A20001B9A12680A60129918911690169817908E
:105A300003984AF20021C0F24A41484344F6D35148
:105A4000C1F26201A0FB01018809FFF735FBFFE706
:105A500020461CB010BD000080B582B001900198B6
:105A60000DF0F0FE02B080BD2DE9F04140F2E43CC3
:105A7000C2F2000CDCF8003040F2E41E011FC2F25A
:105A8000000ECBB10EF50072934215D000244FF4F6
:105A900000781A46568802EB86078F4214D030F8F9
:105AA000027C01EB8705954214D0158814460EEB55
:105AB0008502B8EB850FEDD1A3EB0E0080080880BE
:105AC000CCF80010BDE8F08130F8020C3044508072
:105AD000BDE8F081BB1920F8023C2CB1A1EB0E000F
